:060000000A128A1110280B
:10000800FE00030EF8000408F9000A08FA007F0849
:10001800FB000A128A11F9290A128A1113280A12F6
:100028008A11BC220A128A11FD0083132030840031
:100038004E300A128A1184220A128A11FC018301A5
:100048000A128A113628FF0000308A007F088207CA
:100058002C280A128A1186290A128A115D290A1285
:100068008A11AF290A128A116A220A128A110130EA
:1000780083120313CE000030CF000430D0000A12E0
:100088008A1177220A128A112630840083120313F8
:100098004E0883138000840A4F088000840A5008A1
:1000A8008000840A51088000840A52088000F430D5
:1000B800CE000130CF000130D0000A128A11772219
:1000C8000A128A11831203134E3084000A30263E26
:1000D800D8000530D90083130008DA00040ADB00D1
:1000E800580884005A088000040AD8005B08840075
:1000F800D90B6F28F430CE000130CF000730D00084
:100108000A128A1177220A128A11831203134E30B7
:1001180084000F30263ED8000530D900831300082C
:10012800DA00040ADB00580884005A088000040A30
:10013800D8005B088400D90B9228DC010530CE007A
:100148005C080A128A113F220A128A11263E84008C
:100158008313000883120313D800840A0008D90007
:100168005908803AFF0080307F02031DBD28013006
:1001780058020318C028C128D42805308312031355
:10018800CE005C080A128A113F220A128A112A3EFE
:100198008400831300080A128A1127200A128A1180
:1001A800013083120313D8005808DC0703305C02BF
:1001B800031CDF28E028A228A1280A128A11102887
:1001C800831203130C1301300A128A11B4220A1283
:1001D8008A114529831603131E08F200F3018312BE
:1001E80003131E08F400F5017408F500F401720801
:1001F8007404F00073087504F1000A128A119A2237
:100208000A128A115C29831603131E08F200F301EF
:10021800831203131E08F400F5017408F500F401B5
:1002280072087404F00073087504F1000A128A1148
:100238008C220A128A115C29831203131E08F70004
:10024800831603131E08F6000A128A11A1220A1245
:100258008A117108803AF2007708803A7202031D09
:1002680037297608700203183A293B295C29770850
:10027800F1007608F0000A128A1193220A128A11F4
:100288005C290A128A11BA220A128A11F200F301B1
:100298007308003A031951295C297208003A0319B6
:1002A800EE28013A03190729033A031920295C2982
:1002B8000800831203131F08C33908389F000A1265
:1002C8008A11B8220A128A11003A03196C296D2979
:1002D800632900300A128A11AE220A128A110230EA
:1002E8000A128A11A8220A128A110B11E730831206
:1002F800031381000B1D812982297E298312031390
:100308009F140800831203131F08C33904389F0081
:100318000A128A11B8220A128A11003A0319952979
:1003280096298C2900300A128A11AE220A128A11E3
:1003380001300A128A11A8220A128A110B11E73019
:100348008312031381000B1DAA29AB29A729831245
:1003580003139F140800C330831203139F050A1266
:100368008A11B8220A128A11003A0319BC29BD2938
:10037800B32900300A128A11AE220A128A110030FB
:100388000A128A11A8220A128A110B11E730831265
:10039800031381000B1DD129D229CE2983120313FF
:1003A8009F14080083160313051485140515831676
:1003B8000317081488140815831203131F139F17B3
:1003C800831603131F129F12C330831203139F0552
:1003D800831603139F17831203131F148316031323
:1003E8000C178B12811281150800831203130C1C41
:1003F800FE29FF29082A0330F00026300A128A1144
:100408001C220A128A11112A0C1F0B2A0C2A112AE3
:100418000A128A11E4200A128A117B08FF007A085E
:100428008A0079088400780E8300FE0E7E0E09008B
:10043800F200831203130C10B0308E003C308F0092
:10044800F301382A72088400FF3083138007840F71
:1004580000080318000AFF00FF307F0780008403AC
:100468000130F1007108F30770087302031C3D2A7C
:100478003E2A262A080083120313D100D001511CFA
:10048800462A472A4B2A4E08CF004F08D0070310A8
:10049800CE0D0310D10C5108031D532A542A432AA8
:1004A8005008080083120313101310109010CF3057
:1004B80090051011831603130C14831203130C10E8
:1004C800B0308E003C308F00101408000A128A11D8
:1004D800D6210A128A110A128A1156220A128A1180
:1004E8000B178B170800831203134F08D4004E080C
:1004F800D3004F08D6004E08D5005008D700080092
:1005080064008001840A0406031900340406852A5D
:10051800710883120313A3007008A2000800710871
:1005280083120313A1007008A00008007108831249
:100538000313A5007008A400080083120313210800
:10054800F1002008F000080083120313CE004E08C3
:10055800FC00080083120313CE004E08FD000800BB
:10056800F0007008FD0008007D0808007C080800FD
:0205780001344C
:08400000FF3FFF3FFF3FFF3FC0
:04400E00FF3FFF3F32
:00000001FF
